{
  "_format": "hh-sol-artifact-1",
  "contractName": "Theater",
  "sourceName": "contracts/TheaterNFT.sol",
  "abi": [
    {
      "inputs": [],
      "stateMutability": "nonpayable",
      "type": "constructor"
    },
    {
      "inputs": [
        {
          "internalType": "address",
          "name": "sender",
          "type": "address"
        },
        {
          "internalType": "uint256",
          "name": "tokenId",
          "type": "uint256"
        },
        {
          "internalType": "address",
          "name": "owner",
          "type": "address"
        }
      ],
      "name": "ERC721IncorrectOwner",
      "type": "error"
    },
    {
      "inputs": [
        {
          "internalType": "address",
          "name": "operator",
          "type": "address"
        },
        {
          "internalType": "uint256",
          "name": "tokenId",
          "type": "uint256"
        }
      ],
      "name": "ERC721InsufficientApproval",
      "type": "error"
    },
    {
      "inputs": [
        {
          "internalType": "address",
          "name": "approver",
          "type": "address"
        }
      ],
      "name": "ERC721InvalidApprover",
      "type": "error"
    },
    {
      "inputs": [
        {
          "internalType": "address",
          "name": "operator",
          "type": "address"
        }
      ],
      "name": "ERC721InvalidOperator",
      "type": "error"
    },
    {
      "inputs": [
        {
          "internalType": "address",
          "name": "owner",
          "type": "address"
        }
      ],
      "name": "ERC721InvalidOwner",
      "type": "error"
    },
    {
      "inputs": [
        {
          "internalType": "address",
          "name": "receiver",
          "type": "address"
        }
      ],
      "name": "ERC721InvalidReceiver",
      "type": "error"
    },
    {
      "inputs": [
        {
          "internalType": "address",
          "name": "sender",
          "type": "address"
        }
      ],
      "name": "ERC721InvalidSender",
      "type": "error"
    },
    {
      "inputs": [
        {
          "internalType": "uint256",
          "name": "tokenId",
          "type": "uint256"
        }
      ],
      "name": "ERC721NonexistentToken",
      "type": "error"
    },
    {
      "anonymous": false,
      "inputs": [
        {
          "indexed": true,
          "internalType": "address",
          "name": "owner",
          "type": "address"
        },
        {
          "indexed": true,
          "internalType": "address",
          "name": "approved",
          "type": "address"
        },
        {
          "indexed": true,
          "internalType": "uint256",
          "name": "tokenId",
          "type": "uint256"
        }
      ],
      "name": "Approval",
      "type": "event"
    },
    {
      "anonymous": false,
      "inputs": [
        {
          "indexed": true,
          "internalType": "address",
          "name": "owner",
          "type": "address"
        },
        {
          "indexed": true,
          "internalType": "address",
          "name": "operator",
          "type": "address"
        },
        {
          "indexed": false,
          "internalType": "bool",
          "name": "approved",
          "type": "bool"
        }
      ],
      "name": "ApprovalForAll",
      "type": "event"
    },
    {
      "anonymous": false,
      "inputs": [
        {
          "indexed": false,
          "internalType": "uint256",
          "name": "_fromTokenId",
          "type": "uint256"
        },
        {
          "indexed": false,
          "internalType": "uint256",
          "name": "_toTokenId",
          "type": "uint256"
        }
      ],
      "name": "BatchMetadataUpdate",
      "type": "event"
    },
    {
      "anonymous": false,
      "inputs": [
        {
          "indexed": false,
          "internalType": "uint256",
          "name": "_tokenId",
          "type": "uint256"
        }
      ],
      "name": "MetadataUpdate",
      "type": "event"
    },
    {
      "anonymous": false,
      "inputs": [
        {
          "indexed": false,
          "internalType": "uint256",
          "name": "tokenId",
          "type": "uint256"
        }
      ],
      "name": "TicketBurned",
      "type": "event"
    },
    {
      "anonymous": false,
      "inputs": [
        {
          "indexed": true,
          "internalType": "address",
          "name": "buyer",
          "type": "address"
        },
        {
          "indexed": false,
          "internalType": "uint256",
          "name": "tokenId",
          "type": "uint256"
        }
      ],
      "name": "TicketPurchased",
      "type": "event"
    },
    {
      "anonymous": false,
      "inputs": [
        {
          "indexed": true,
          "internalType": "address",
          "name": "from",
          "type": "address"
        },
        {
          "indexed": true,
          "internalType": "address",
          "name": "to",
          "type": "address"
        },
        {
          "indexed": true,
          "internalType": "uint256",
          "name": "tokenId",
          "type": "uint256"
        }
      ],
      "name": "Transfer",
      "type": "event"
    },
    {
      "inputs": [],
      "name": "admin",
      "outputs": [
        {
          "internalType": "address",
          "name": "",
          "type": "address"
        }
      ],
      "stateMutability": "view",
      "type": "function"
    },
    {
      "inputs": [
        {
          "internalType": "address",
          "name": "to",
          "type": "address"
        },
        {
          "internalType": "uint256",
          "name": "tokenId",
          "type": "uint256"
        }
      ],
      "name": "approve",
      "outputs": [],
      "stateMutability": "nonpayable",
      "type": "function"
    },
    {
      "inputs": [
        {
          "internalType": "address",
          "name": "owner",
          "type": "address"
        }
      ],
      "name": "balanceOf",
      "outputs": [
        {
          "internalType": "uint256",
          "name": "",
          "type": "uint256"
        }
      ],
      "stateMutability": "view",
      "type": "function"
    },
    {
      "inputs": [
        {
          "internalType": "uint256",
          "name": "",
          "type": "uint256"
        }
      ],
      "name": "burnedTickets",
      "outputs": [
        {
          "internalType": "bool",
          "name": "",
          "type": "bool"
        }
      ],
      "stateMutability": "view",
      "type": "function"
    },
    {
      "inputs": [
        {
          "internalType": "string",
          "name": "_tokenURI",
          "type": "string"
        }
      ],
      "name": "buyTicket",
      "outputs": [
        {
          "internalType": "bool",
          "name": "",
          "type": "bool"
        }
      ],
      "stateMutability": "payable",
      "type": "function"
    },
    {
      "inputs": [
        {
          "internalType": "uint256",
          "name": "_newPrice",
          "type": "uint256"
        }
      ],
      "name": "changeTicketPrice",
      "outputs": [],
      "stateMutability": "nonpayable",
      "type": "function"
    },
    {
      "inputs": [
        {
          "internalType": "uint256",
          "name": "_tokenId",
          "type": "uint256"
        }
      ],
      "name": "checkTicket",
      "outputs": [
        {
          "internalType": "bool",
          "name": "",
          "type": "bool"
        }
      ],
      "stateMutability": "nonpayable",
      "type": "function"
    },
    {
      "inputs": [
        {
          "internalType": "uint256",
          "name": "tokenId",
          "type": "uint256"
        }
      ],
      "name": "getApproved",
      "outputs": [
        {
          "internalType": "address",
          "name": "",
          "type": "address"
        }
      ],
      "stateMutability": "view",
      "type": "function"
    },
    {
      "inputs": [],
      "name": "getOwnedTickets",
      "outputs": [
        {
          "internalType": "uint256[]",
          "name": "",
          "type": "uint256[]"
        }
      ],
      "stateMutability": "view",
      "type": "function"
    },
    {
      "inputs": [
        {
          "internalType": "address",
          "name": "owner",
          "type": "address"
        },
        {
          "internalType": "address",
          "name": "operator",
          "type": "address"
        }
      ],
      "name": "isApprovedForAll",
      "outputs": [
        {
          "internalType": "bool",
          "name": "",
          "type": "bool"
        }
      ],
      "stateMutability": "view",
      "type": "function"
    },
    {
      "inputs": [],
      "name": "name",
      "outputs": [
        {
          "internalType": "string",
          "name": "",
          "type": "string"
        }
      ],
      "stateMutability": "view",
      "type": "function"
    },
    {
      "inputs": [
        {
          "internalType": "uint256",
          "name": "tokenId",
          "type": "uint256"
        }
      ],
      "name": "ownerOf",
      "outputs": [
        {
          "internalType": "address",
          "name": "",
          "type": "address"
        }
      ],
      "stateMutability": "view",
      "type": "function"
    },
    {
      "inputs": [
        {
          "internalType": "address",
          "name": "from",
          "type": "address"
        },
        {
          "internalType": "address",
          "name": "to",
          "type": "address"
        },
        {
          "internalType": "uint256",
          "name": "tokenId",
          "type": "uint256"
        }
      ],
      "name": "safeTransferFrom",
      "outputs": [],
      "stateMutability": "nonpayable",
      "type": "function"
    },
    {
      "inputs": [
        {
          "internalType": "address",
          "name": "from",
          "type": "address"
        },
        {
          "internalType": "address",
          "name": "to",
          "type": "address"
        },
        {
          "internalType": "uint256",
          "name": "tokenId",
          "type": "uint256"
        },
        {
          "internalType": "bytes",
          "name": "data",
          "type": "bytes"
        }
      ],
      "name": "safeTransferFrom",
      "outputs": [],
      "stateMutability": "nonpayable",
      "type": "function"
    },
    {
      "inputs": [
        {
          "internalType": "address",
          "name": "operator",
          "type": "address"
        },
        {
          "internalType": "bool",
          "name": "approved",
          "type": "bool"
        }
      ],
      "name": "setApprovalForAll",
      "outputs": [],
      "stateMutability": "nonpayable",
      "type": "function"
    },
    {
      "inputs": [],
      "name": "showName",
      "outputs": [
        {
          "internalType": "string",
          "name": "",
          "type": "string"
        }
      ],
      "stateMutability": "view",
      "type": "function"
    },
    {
      "inputs": [
        {
          "internalType": "bytes4",
          "name": "interfaceId",
          "type": "bytes4"
        }
      ],
      "name": "supportsInterface",
      "outputs": [
        {
          "internalType": "bool",
          "name": "",
          "type": "bool"
        }
      ],
      "stateMutability": "view",
      "type": "function"
    },
    {
      "inputs": [],
      "name": "symbol",
      "outputs": [
        {
          "internalType": "string",
          "name": "",
          "type": "string"
        }
      ],
      "stateMutability": "view",
      "type": "function"
    },
    {
      "inputs": [
        {
          "internalType": "uint256",
          "name": "",
          "type": "uint256"
        }
      ],
      "name": "ticketOwners",
      "outputs": [
        {
          "internalType": "address",
          "name": "",
          "type": "address"
        }
      ],
      "stateMutability": "view",
      "type": "function"
    },
    {
      "inputs": [],
      "name": "ticketPrice",
      "outputs": [
        {
          "internalType": "uint256",
          "name": "",
          "type": "uint256"
        }
      ],
      "stateMutability": "view",
      "type": "function"
    },
    {
      "inputs": [
        {
          "internalType": "uint256",
          "name": "tokenId",
          "type": "uint256"
        }
      ],
      "name": "tokenURI",
      "outputs": [
        {
          "internalType": "string",
          "name": "",
          "type": "string"
        }
      ],
      "stateMutability": "view",
      "type": "function"
    },
    {
      "inputs": [],
      "name": "totalTicketsSold",
      "outputs": [
        {
          "internalType": "uint256",
          "name": "",
          "type": "uint256"
        }
      ],
      "stateMutability": "view",
      "type": "function"
    },
    {
      "inputs": [
        {
          "internalType": "address",
          "name": "from",
          "type": "address"
        },
        {
          "internalType": "address",
          "name": "to",
          "type": "address"
        },
        {
          "internalType": "uint256",
          "name": "tokenId",
          "type": "uint256"
        }
      ],
      "name": "transferFrom",
      "outputs": [],
      "stateMutability": "nonpayable",
      "type": "function"
    },
    {
      "inputs": [
        {
          "internalType": "address",
          "name": "",
          "type": "address"
        },
        {
          "internalType": "uint256",
          "name": "",
          "type": "uint256"
        }
      ],
      "name": "userTickets",
      "outputs": [
        {
          "internalType": "uint256",
          "name": "",
          "type": "uint256"
        }
      ],
      "stateMutability": "view",
      "type": "function"
    },
    {
      "inputs": [],
      "name": "withdraw",
      "outputs": [],
      "stateMutability": "nonpayable",
      "type": "function"
    }
  ],
  "bytecode": "0x60806040526040518060400160405280600981526020017f323a33302053686f770000000000000000000000000000000000000000000000815250600a90816200004a9190620003b7565b503480156200005857600080fd5b506040518060400160405280600d81526020017f546865617465725469636b6574000000000000000000000000000000000000008152506040518060400160405280600381526020017f54495800000000000000000000000000000000000000000000000000000000008152508160009081620000d69190620003b7565b508060019081620000e89190620003b7565b50505033600760006101000a81548173ffffffffffffffffffffffffffffffffffffffff021916908373ffffffffffffffffffffffffffffffffffffffff1602179055506305f5e1006008819055506200049e565b600081519050919050565b7f4e487b7100000000000000000000000000000000000000000000000000000000600052604160045260246000fd5b7f4e487b7100000000000000000000000000000000000000000000000000000000600052602260045260246000fd5b60006002820490506001821680620001bf57607f821691505b602082108103620001d557620001d462000177565b5b50919050565b60008190508160005260206000209050919050565b60006020601f8301049050919050565b600082821b905092915050565b6000600883026200023f7fffffffffffffffffffffffffffffffffffffffffffffffffffffffffffffffff8262000200565b6200024b868362000200565b95508019841693508086168417925050509392505050565b6000819050919050565b6000819050919050565b600062000298620002926200028c8462000263565b6200026d565b62000263565b9050919050565b6000819050919050565b620002b48362000277565b620002cc620002c3826200029f565b8484546200020d565b825550505050565b600090565b620002e3620002d4565b620002f0818484620002a9565b505050565b5b8181101562000318576200030c600082620002d9565b600181019050620002f6565b5050565b601f82111562000367576200033181620001db565b6200033c84620001f0565b810160208510156200034c578190505b620003646200035b85620001f0565b830182620002f5565b50505b505050565b600082821c905092915050565b60006200038c600019846008026200036c565b1980831691505092915050565b6000620003a7838362000379565b9150826002028217905092915050565b620003c2826200013d565b67ffffffffffffffff811115620003de57620003dd62000148565b5b620003ea8254620001a6565b620003f78282856200031c565b600060209050601f8311600181146200042f57600084156200041a578287015190505b62000426858262000399565b86555062000496565b601f1984166200043f86620001db565b60005b82811015620004695784890151825560018201915060208501945060208101905062000442565b8683101562000489578489015162000485601f89168262000379565b8355505b6001600288020188555050505b505050505050565b6131fd80620004ae6000396000f3fe6080604052600436106101665760003560e01c806346d260a1116100d1578063c87b56dd1161008a578063eb2dbcf611610064578063eb2dbcf614610562578063f6bad6561461059f578063f851a440146105dc578063fa30b2511461060757610166565b8063c87b56dd146104ab578063cf260baf146104e8578063e985e9c51461052557610166565b806346d260a1146103775780636352211e146103b457806370a08231146103f157806395d89b411461042e578063a22cb46514610459578063b88d4fde1461048257610166565b8063223c704911610123578063223c70491461028f57806323b872dd146102ba57806334701db8146102e35780633ccfd60b1461030e57806342842e0e146103255780634630a0ee1461034e57610166565b806301ffc9a71461016b57806306fdde03146101a8578063081812fc146101d3578063095ea7b3146102105780631209b1f61461023957806314f0419814610264575b600080fd5b34801561017757600080fd5b50610192600480360381019061018d91906122ec565b610637565b60405161019f9190612334565b60405180910390f35b3480156101b457600080fd5b506101bd610698565b6040516101ca91906123df565b60405180910390f35b3480156101df57600080fd5b506101fa60048036038101906101f59190612437565b61072a565b60405161020791906124a5565b60405180910390f35b34801561021c57600080fd5b50610237600480360381019061023291906124ec565b610746565b005b34801561024557600080fd5b5061024e61075c565b60405161025b919061253b565b60405180910390f35b34801561027057600080fd5b50610279610762565b6040516102869190612614565b60405180910390f35b34801561029b57600080fd5b506102a46107f7565b6040516102b191906123df565b60405180910390f35b3480156102c657600080fd5b506102e160048036038101906102dc9190612636565b610885565b005b3480156102ef57600080fd5b506102f8610987565b604051610305919061253b565b60405180910390f35b34801561031a57600080fd5b5061032361098d565b005b34801561033157600080fd5b5061034c60048036038101906103479190612636565b610a88565b005b34801561035a57600080fd5b5061037560048036038101906103709190612437565b610aa8565b005b34801561038357600080fd5b5061039e60048036038101906103999190612437565b610b42565b6040516103ab9190612334565b60405180910390f35b3480156103c057600080fd5b506103db60048036038101906103d69190612437565b610bed565b6040516103e891906124a5565b60405180910390f35b3480156103fd57600080fd5b5061041860048036038101906104139190612689565b610bff565b604051610425919061253b565b60405180910390f35b34801561043a57600080fd5b50610443610cb9565b60405161045091906123df565b60405180910390f35b34801561046557600080fd5b50610480600480360381019061047b91906126e2565b610d4b565b005b34801561048e57600080fd5b506104a960048036038101906104a49190612857565b610d61565b005b3480156104b757600080fd5b506104d260048036038101906104cd9190612437565b610d7e565b6040516104df91906123df565b60405180910390f35b3480156104f457600080fd5b5061050f600480360381019061050a91906124ec565b610e91565b60405161051c919061253b565b60405180910390f35b34801561053157600080fd5b5061054c600480360381019061054791906128da565b610ec2565b6040516105599190612334565b60405180910390f35b34801561056e57600080fd5b5061058960048036038101906105849190612437565b610f56565b60405161059691906124a5565b60405180910390f35b3480156105ab57600080fd5b506105c660048036038101906105c19190612437565b610f89565b6040516105d39190612334565b60405180910390f35b3480156105e857600080fd5b506105f1610fa9565b6040516105fe91906124a5565b60405180910390f35b610621600480360381019061061c91906129bb565b610fcf565b60405161062e9190612334565b60405180910390f35b6000634906490660e01b7bffffffffffffffffffffffffffffffffffffffffffffffffffffffff1916827bffffffffffffffffffffffffffffffffffffffffffffffffffffffff191614806106915750610690826111aa565b5b9050919050565b6060600080546106a790612a33565b80601f01602080910402602001604051908101604052809291908181526020018280546106d390612a33565b80156107205780601f106106f557610100808354040283529160200191610720565b820191906000526020600020905b81548152906001019060200180831161070357829003601f168201915b5050505050905090565b60006107358261128c565b5061073f82611314565b9050919050565b6107588282610753611351565b611359565b5050565b60085481565b6060600b60003373ffffffffffffffffffffffffffffffffffffffff1673ffffffffffffffffffffffffffffffffffffffff1681526020019081526020016000208054806020026020016040519081016040528092919081815260200182805480156107ed57602002820191906000526020600020905b8154815260200190600101908083116107d9575b5050505050905090565b600a805461080490612a33565b80601f016020809104026020016040519081016040528092919081815260200182805461083090612a33565b801561087d5780601f106108525761010080835404028352916020019161087d565b820191906000526020600020905b81548152906001019060200180831161086057829003601f168201915b505050505081565b600073ffffffffffffffffffffffffffffffffffffffff168273ffffffffffffffffffffffffffffffffffffffff16036108f75760006040517f64a0ae920000000000000000000000000000000000000000000000000000000081526004016108ee91906124a5565b60405180910390fd5b600061090b8383610906611351565b61136b565b90508373ffffffffffffffffffffffffffffffffffffffff168173ffffffffffffffffffffffffffffffffffffffff1614610981578382826040517f64283d7b00000000000000000000000000000000000000000000000000000000815260040161097893929190612a64565b60405180910390fd5b50505050565b60095481565b600760009054906101000a900473ffffffffffffffffffffffffffffffffffffffff1673ffffffffffffffffffffffffffffffffffffffff163373ffffffffffffffffffffffffffffffffffffffff1614610a1d576040517f08c379a0000000000000000000000000000000000000000000000000000000008152600401610a1490612b0d565b60405180910390fd5b600760009054906101000a900473ffffffffffffffffffffffffffffffffffffffff1673ffffffffffffffffffffffffffffffffffffffff166108fc479081150290604051600060405180830381858888f19350505050158015610a85573d6000803e3d6000fd5b50565b610aa383838360405180602001604052806000815250610d61565b505050565b600760009054906101000a900473ffffffffffffffffffffffffffffffffffffffff1673ffffffffffffffffffffffffffffffffffffffff163373ffffffffffffffffffffffffffffffffffffffff1614610b38576040517f08c379a0000000000000000000000000000000000000000000000000000000008152600401610b2f90612b0d565b60405180910390fd5b8060088190555050565b6000610b4d82611585565b15610b8d576040517f08c379a0000000000000000000000000000000000000000000000000000000008152600401610b8490612b79565b60405180910390fd5b6000600190508015610be457610ba2836115af565b7fd6acdc6c4f4076335309cf5eeb3b91b03b26861765e0726fce70f4617de8c7c683604051610bd1919061253b565b60405180910390a1610be33384611635565b5b80915050919050565b6000610bf88261128c565b9050919050565b60008073ffffffffffffffffffffffffffffffffffffffff168273ffffffffffffffffffffffffffffffffffffffff1603610c725760006040517f89c62b64000000000000000000000000000000000000000000000000000000008152600401610c6991906124a5565b60405180910390fd5b600360008373ffffffffffffffffffffffffffffffffffffffff1673ffffffffffffffffffffffffffffffffffffffff168152602001908152602001600020549050919050565b606060018054610cc890612a33565b80601f0160208091040260200160405190810160405280929190818152602001828054610cf490612a33565b8015610d415780601f10610d1657610100808354040283529160200191610d41565b820191906000526020600020905b815481529060010190602001808311610d2457829003601f168201915b5050505050905090565b610d5d610d56611351565b8383611739565b5050565b610d6c848484610885565b610d78848484846118a8565b50505050565b6060610d898261128c565b506000600660008481526020019081526020016000208054610daa90612a33565b80601f0160208091040260200160405190810160405280929190818152602001828054610dd690612a33565b8015610e235780601f10610df857610100808354040283529160200191610e23565b820191906000526020600020905b815481529060010190602001808311610e0657829003601f168201915b505050505090506000610e34611a5f565b90506000815103610e49578192505050610e8c565b600082511115610e7e578082604051602001610e66929190612bd5565b60405160208183030381529060405292505050610e8c565b610e8784611a76565b925050505b919050565b600b6020528160005260406000208181548110610ead57600080fd5b90600052602060002001600091509150505481565b6000600560008473ffffffffffffffffffffffffffffffffffffffff1673ffffffffffffffffffffffffffffffffffffffff16815260200190815260200160002060008373ffffffffffffffffffffffffffffffffffffffff1673ffffffffffffffffffffffffffffffffffffffff16815260200190815260200160002060009054906101000a900460ff16905092915050565b600c6020528060005260406000206000915054906101000a900473ffffffffffffffffffffffffffffffffffffffff1681565b600d6020528060005260406000206000915054906101000a900460ff1681565b600760009054906101000a900473ffffffffffffffffffffffffffffffffffffffff1681565b6000600854341015611016576040517f08c379a000000000000000000000000000000000000000000000000000000000815260040161100d90612c45565b60405180910390fd5b60646009541061105b576040517f08c379a000000000000000000000000000000000000000000000000000000000815260040161105290612cb1565b60405180910390fd5b6000600160095461106c9190612d00565b90506110783382611adf565b6110828184611afd565b6009600081548092919061109590612d34565b9190505550600b60003373ffffffffffffffffffffffffffffffffffffffff1673ffffffffffffffffffffffffffffffffffffffff16815260200190815260200160002081908060018154018082558091505060019003906000526020600020016000909190919091505533600c600083815260200190815260200160002060006101000a81548173ffffffffffffffffffffffffffffffffffffffff021916908373ffffffffffffffffffffffffffffffffffffffff1602179055503373ffffffffffffffffffffffffffffffffffffffff167f0668f5b446eb814fe35b3206f43f14bd8567ba04ddaf7a3ee56516929ab22ccb82604051611198919061253b565b60405180910390a26001915050919050565b60007f80ac58cd000000000000000000000000000000000000000000000000000000007bffffffffffffffffffffffffffffffffffffffffffffffffffffffff1916827bffffffffffffffffffffffffffffffffffffffffffffffffffffffff1916148061127557507f5b5e139f000000000000000000000000000000000000000000000000000000007bffffffffffffffffffffffffffffffffffffffffffffffffffffffff1916827bffffffffffffffffffffffffffffffffffffffffffffffffffffffff1916145b80611285575061128482611b59565b5b9050919050565b60008061129883611bc3565b9050600073ffffffffffffffffffffffffffffffffffffffff168173ffffffffffffffffffffffffffffffffffffffff160361130b57826040517f7e273289000000000000000000000000000000000000000000000000000000008152600401611302919061253b565b60405180910390fd5b80915050919050565b60006004600083815260200190815260200160002060009054906101000a900473ffffffffffffffffffffffffffffffffffffffff169050919050565b600033905090565b6113668383836001611c00565b505050565b60008061137784611bc3565b9050600073ffffffffffffffffffffffffffffffffffffffff168373ffffffffffffffffffffffffffffffffffffffff16146113b9576113b8818486611dc5565b5b600073ffffffffffffffffffffffffffffffffffffffff168173ffffffffffffffffffffffffffffffffffffffff161461144a576113fb600085600080611c00565b6001600360008373ffffffffffffffffffffffffffffffffffffffff1673ffffffffffffffffffffffffffffffffffffffff168152602001908152602001600020600082825403925050819055505b600073ffffffffffffffffffffffffffffffffffffffff168573ffffffffffffffffffffffffffffffffffffffff16146114cd576001600360008773ffffffffffffffffffffffffffffffffffffffff1673ffffffffffffffffffffffffffffffffffffffff168152602001908152602001600020600082825401925050819055505b846002600086815260200190815260200160002060006101000a81548173ffffffffffffffffffffffffffffffffffffffff021916908373ffffffffffffffffffffffffffffffffffffffff160217905550838573ffffffffffffffffffffffffffffffffffffffff168273ffffffffffffffffffffffffffffffffffffffff167fddf252ad1be2c89b69c2b068fc378daa952ba7f163c4a11628f55a4df523b3ef60405160405180910390a4809150509392505050565b6000600d600083815260200190815260200160002060009054906101000a900460ff169050919050565b60006115be600083600061136b565b9050600073ffffffffffffffffffffffffffffffffffffffff168173ffffffffffffffffffffffffffffffffffffffff160361163157816040517f7e273289000000000000000000000000000000000000000000000000000000008152600401611628919061253b565b60405180910390fd5b5050565b6000600b60008473ffffffffffffffffffffffffffffffffffffffff1673ffffffffffffffffffffffffffffffffffffffff168152602001908152602001600020905060005b8180549050811015611733578282828154811061169b5761169a612d7c565b5b9060005260206000200154036117265781600183805490506116bd9190612dab565b815481106116ce576116cd612d7c565b5b90600052602060002001548282815481106116ec576116eb612d7c565b5b90600052602060002001819055508180548061170b5761170a612ddf565b5b60019003818190600052602060002001600090559055611733565b808060010191505061167b565b50505050565b600073ffffffffffffffffffffffffffffffffffffffff168273ffffffffffffffffffffffffffffffffffffffff16036117aa57816040517f5b08ba180000000000000000000000000000000000000000000000000000000081526004016117a191906124a5565b60405180910390fd5b80600560008573ffffffffffffffffffffffffffffffffffffffff1673ffffffffffffffffffffffffffffffffffffffff16815260200190815260200160002060008473ffffffffffffffffffffffffffffffffffffffff1673ffffffffffffffffffffffffffffffffffffffff16815260200190815260200160002060006101000a81548160ff0219169083151502179055508173ffffffffffffffffffffffffffffffffffffffff168373ffffffffffffffffffffffffffffffffffffffff167f17307eab39ab6107e8899845ad3d59bd9653f200f220920489ca2b5937696c318360405161189b9190612334565b60405180910390a3505050565b60008373ffffffffffffffffffffffffffffffffffffffff163b1115611a59578273ffffffffffffffffffffffffffffffffffffffff1663150b7a026118ec611351565b8685856040518563ffffffff1660e01b815260040161190e9493929190612e63565b6020604051808303816000875af192505050801561194a57506040513d601f19601f820116820180604052508101906119479190612ec4565b60015b6119ce573d806000811461197a576040519150601f19603f3d011682016040523d82523d6000602084013e61197f565b606091505b5060008151036119c657836040517f64a0ae920000000000000000000000000000000000000000000000000000000081526004016119bd91906124a5565b60405180910390fd5b805181602001fd5b63150b7a0260e01b7bffffffffffffffffffffffffffffffffffffffffffffffffffffffff1916817bffffffffffffffffffffffffffffffffffffffffffffffffffffffff191614611a5757836040517f64a0ae92000000000000000000000000000000000000000000000000000000008152600401611a4e91906124a5565b60405180910390fd5b505b50505050565b606060405180602001604052806000815250905090565b6060611a818261128c565b506000611a8c611a5f565b90506000815111611aac5760405180602001604052806000815250611ad7565b80611ab684611e89565b604051602001611ac7929190612bd5565b6040516020818303038152906040525b915050919050565b611af9828260405180602001604052806000815250611f57565b5050565b80600660008481526020019081526020016000209081611b1d919061309d565b507ff8e1a15aba9398e019f0b49df1a4fde98ee17ae345cb5f6b5e2c27f5033e8ce782604051611b4d919061253b565b60405180910390a15050565b60007f01ffc9a7000000000000000000000000000000000000000000000000000000007bffffffffffffffffffffffffffffffffffffffffffffffffffffffff1916827bffffffffffffffffffffffffffffffffffffffffffffffffffffffff1916149050919050565b60006002600083815260200190815260200160002060009054906101000a900473ffffffffffffffffffffffffffffffffffffffff169050919050565b8080611c395750600073ffffffffffffffffffffffffffffffffffffffff168273ffffffffffffffffffffffffffffffffffffffff1614155b15611d6d576000611c498461128c565b9050600073ffffffffffffffffffffffffffffffffffffffff168373ffffffffffffffffffffffffffffffffffffffff1614158015611cb457508273ffffffffffffffffffffffffffffffffffffffff168173ffffffffffffffffffffffffffffffffffffffff1614155b8015611cc75750611cc58184610ec2565b155b15611d0957826040517fa9fbf51f000000000000000000000000000000000000000000000000000000008152600401611d0091906124a5565b60405180910390fd5b8115611d6b57838573ffffffffffffffffffffffffffffffffffffffff168273ffffffffffffffffffffffffffffffffffffffff167f8c5be1e5ebec7d5bd14f71427d1e84f3dd0314c0f7b2291e5b200ac8c7c3b92560405160405180910390a45b505b836004600085815260200190815260200160002060006101000a81548173ffffffffffffffffffffffffffffffffffffffff021916908373ffffffffffffffffffffffffffffffffffffffff16021790555050505050565b611dd0838383611f73565b611e8457600073ffffffffffffffffffffffffffffffffffffffff168373ffffffffffffffffffffffffffffffffffffffff1603611e4557806040517f7e273289000000000000000000000000000000000000000000000000000000008152600401611e3c919061253b565b60405180910390fd5b81816040517f177e802f000000000000000000000000000000000000000000000000000000008152600401611e7b92919061316f565b60405180910390fd5b505050565b606060006001611e9884612034565b01905060008167ffffffffffffffff811115611eb757611eb661272c565b5b6040519080825280601f01601f191660200182016040528015611ee95781602001600182028036833780820191505090505b509050600082602001820190505b600115611f4c578080600190039150507f3031323334353637383961626364656600000000000000000000000000000000600a86061a8153600a8581611f4057611f3f613198565b5b04945060008503611ef7575b819350505050919050565b611f618383612187565b611f6e60008484846118a8565b505050565b60008073ffffffffffffffffffffffffffffffffffffffff168373ffffffffffffffffffffffffffffffffffffffff161415801561202b57508273ffffffffffffffffffffffffffffffffffffffff168473ffffffffffffffffffffffffffffffffffffffff161480611fec5750611feb8484610ec2565b5b8061202a57508273ffffffffffffffffffffffffffffffffffffffff1661201283611314565b73ffffffffffffffffffffffffffffffffffffffff16145b5b90509392505050565b600080600090507a184f03e93ff9f4daa797ed6e38ed64bf6a1f0100000000000000008310612092577a184f03e93ff9f4daa797ed6e38ed64bf6a1f010000000000000000838161208857612087613198565b5b0492506040810190505b6d04ee2d6d415b85acef810000000083106120cf576d04ee2d6d415b85acef810000000083816120c5576120c4613198565b5b0492506020810190505b662386f26fc1000083106120fe57662386f26fc1000083816120f4576120f3613198565b5b0492506010810190505b6305f5e1008310612127576305f5e100838161211d5761211c613198565b5b0492506008810190505b612710831061214c57612710838161214257612141613198565b5b0492506004810190505b6064831061216f576064838161216557612164613198565b5b0492506002810190505b600a831061217e576001810190505b80915050919050565b600073ffffffffffffffffffffffffffffffffffffffff168273ffffffffffffffffffffffffffffffffffffffff16036121f95760006040517f64a0ae920000000000000000000000000000000000000000000000000000000081526004016121f091906124a5565b60405180910390fd5b60006122078383600061136b565b9050600073ffffffffffffffffffffffffffffffffffffffff168173ffffffffffffffffffffffffffffffffffffffff161461227b5760006040517f73c6ac6e00000000000000000000000000000000000000000000000000000000815260040161227291906124a5565b60405180910390fd5b505050565b6000604051905090565b600080fd5b600080fd5b60007fffffffff0000000000000000000000000000000000000000000000000000000082169050919050565b6122c981612294565b81146122d457600080fd5b50565b6000813590506122e6816122c0565b92915050565b6000602082840312156123025761230161228a565b5b6000612310848285016122d7565b91505092915050565b60008115159050919050565b61232e81612319565b82525050565b60006020820190506123496000830184612325565b92915050565b600081519050919050565b600082825260208201905092915050565b60005b8381101561238957808201518184015260208101905061236e565b60008484015250505050565b6000601f19601f8301169050919050565b60006123b18261234f565b6123bb818561235a565b93506123cb81856020860161236b565b6123d481612395565b840191505092915050565b600060208201905081810360008301526123f981846123a6565b905092915050565b6000819050919050565b61241481612401565b811461241f57600080fd5b50565b6000813590506124318161240b565b92915050565b60006020828403121561244d5761244c61228a565b5b600061245b84828501612422565b91505092915050565b600073ffffffffffffffffffffffffffffffffffffffff82169050919050565b600061248f82612464565b9050919050565b61249f81612484565b82525050565b60006020820190506124ba6000830184612496565b92915050565b6124c981612484565b81146124d457600080fd5b50565b6000813590506124e6816124c0565b92915050565b600080604083850312156125035761250261228a565b5b6000612511858286016124d7565b925050602061252285828601612422565b9150509250929050565b61253581612401565b82525050565b6000602082019050612550600083018461252c565b92915050565b600081519050919050565b600082825260208201905092915050565b6000819050602082019050919050565b61258b81612401565b82525050565b600061259d8383612582565b60208301905092915050565b6000602082019050919050565b60006125c182612556565b6125cb8185612561565b93506125d683612572565b8060005b838110156126075781516125ee8882612591565b97506125f9836125a9565b9250506001810190506125da565b5085935050505092915050565b6000602082019050818103600083015261262e81846125b6565b905092915050565b60008060006060848603121561264f5761264e61228a565b5b600061265d868287016124d7565b935050602061266e868287016124d7565b925050604061267f86828701612422565b9150509250925092565b60006020828403121561269f5761269e61228a565b5b60006126ad848285016124d7565b91505092915050565b6126bf81612319565b81146126ca57600080fd5b50565b6000813590506126dc816126b6565b92915050565b600080604083850312156126f9576126f861228a565b5b6000612707858286016124d7565b9250506020612718858286016126cd565b9150509250929050565b600080fd5b600080fd5b7f4e487b7100000000000000000000000000000000000000000000000000000000600052604160045260246000fd5b61276482612395565b810181811067ffffffffffffffff821117156127835761278261272c565b5b80604052505050565b6000612796612280565b90506127a2828261275b565b919050565b600067ffffffffffffffff8211156127c2576127c161272c565b5b6127cb82612395565b9050602081019050919050565b82818337600083830152505050565b60006127fa6127f5846127a7565b61278c565b90508281526020810184848401111561281657612815612727565b5b6128218482856127d8565b509392505050565b600082601f83011261283e5761283d612722565b5b813561284e8482602086016127e7565b91505092915050565b600080600080608085870312156128715761287061228a565b5b600061287f878288016124d7565b9450506020612890878288016124d7565b93505060406128a187828801612422565b925050606085013567ffffffffffffffff8111156128c2576128c161228f565b5b6128ce87828801612829565b91505092959194509250565b600080604083850312156128f1576128f061228a565b5b60006128ff858286016124d7565b9250506020612910858286016124d7565b9150509250929050565b600067ffffffffffffffff8211156129355761293461272c565b5b61293e82612395565b9050602081019050919050565b600061295e6129598461291a565b61278c565b90508281526020810184848401111561297a57612979612727565b5b6129858482856127d8565b509392505050565b600082601f8301126129a2576129a1612722565b5b81356129b284826020860161294b565b91505092915050565b6000602082840312156129d1576129d061228a565b5b600082013567ffffffffffffffff8111156129ef576129ee61228f565b5b6129fb8482850161298d565b91505092915050565b7f4e487b7100000000000000000000000000000000000000000000000000000000600052602260045260246000fd5b60006002820490506001821680612a4b57607f821691505b602082108103612a5e57612a5d612a04565b5b50919050565b6000606082019050612a796000830186612496565b612a86602083018561252c565b612a936040830184612496565b949350505050565b7f4f6e6c792061646d696e2063616e2063616c6c20746869732066756e6374696f60008201527f6e00000000000000000000000000000000000000000000000000000000000000602082015250565b6000612af760218361235a565b9150612b0282612a9b565b604082019050919050565b60006020820190508181036000830152612b2681612aea565b9050919050565b7f5469636b657420616c7265616479206275726e65640000000000000000000000600082015250565b6000612b6360158361235a565b9150612b6e82612b2d565b602082019050919050565b60006020820190508181036000830152612b9281612b56565b9050919050565b600081905092915050565b6000612baf8261234f565b612bb98185612b99565b9350612bc981856020860161236b565b80840191505092915050565b6000612be18285612ba4565b9150612bed8284612ba4565b91508190509392505050565b7f496e73756666696369656e74207061796d656e74000000000000000000000000600082015250565b6000612c2f60148361235a565b9150612c3a82612bf9565b602082019050919050565b60006020820190508181036000830152612c5e81612c22565b9050919050565b7f416c6c207469636b65747320736f6c64206f7574000000000000000000000000600082015250565b6000612c9b60148361235a565b9150612ca682612c65565b602082019050919050565b60006020820190508181036000830152612cca81612c8e565b9050919050565b7f4e487b7100000000000000000000000000000000000000000000000000000000600052601160045260246000fd5b6000612d0b82612401565b9150612d1683612401565b9250828201905080821115612d2e57612d2d612cd1565b5b92915050565b6000612d3f82612401565b91507fffffffffffffffffffffffffffffffffffffffffffffffffffffffffffffffff8203612d7157612d70612cd1565b5b600182019050919050565b7f4e487b7100000000000000000000000000000000000000000000000000000000600052603260045260246000fd5b6000612db682612401565b9150612dc183612401565b9250828203905081811115612dd957612dd8612cd1565b5b92915050565b7f4e487b7100000000000000000000000000000000000000000000000000000000600052603160045260246000fd5b600081519050919050565b600082825260208201905092915050565b6000612e3582612e0e565b612e3f8185612e19565b9350612e4f81856020860161236b565b612e5881612395565b840191505092915050565b6000608082019050612e786000830187612496565b612e856020830186612496565b612e92604083018561252c565b8181036060830152612ea48184612e2a565b905095945050505050565b600081519050612ebe816122c0565b92915050565b600060208284031215612eda57612ed961228a565b5b6000612ee884828501612eaf565b91505092915050565b60008190508160005260206000209050919050565b60006020601f8301049050919050565b600082821b905092915050565b600060088302612f537fffffffffffffffffffffffffffffffffffffffffffffffffffffffffffffffff82612f16565b612f5d8683612f16565b95508019841693508086168417925050509392505050565b6000819050919050565b6000612f9a612f95612f9084612401565b612f75565b612401565b9050919050565b6000819050919050565b612fb483612f7f565b612fc8612fc082612fa1565b848454612f23565b825550505050565b600090565b612fdd612fd0565b612fe8818484612fab565b505050565b5b8181101561300c57613001600082612fd5565b600181019050612fee565b5050565b601f8211156130515761302281612ef1565b61302b84612f06565b8101602085101561303a578190505b61304e61304685612f06565b830182612fed565b50505b505050565b600082821c905092915050565b600061307460001984600802613056565b1980831691505092915050565b600061308d8383613063565b9150826002028217905092915050565b6130a68261234f565b67ffffffffffffffff8111156130bf576130be61272c565b5b6130c98254612a33565b6130d4828285613010565b600060209050601f83116001811461310757600084156130f5578287015190505b6130ff8582613081565b865550613167565b601f19841661311586612ef1565b60005b8281101561313d57848901518255600182019150602085019450602081019050613118565b8683101561315a5784890151613156601f891682613063565b8355505b6001600288020188555050505b505050505050565b60006040820190506131846000830185612496565b613191602083018461252c565b9392505050565b7f4e487b7100000000000000000000000000000000000000000000000000000000600052601260045260246000fdfea2646970667358221220b8a3baaaf2cd2f940f1b349560d8bc0e52062eb0dae4a5ee88f1480734cbc7ac64736f6c63430008180033",
  "linkReferences": {},
  "deployedLinkReferences": {}
}